{
  "contractName": "HelloWorld",
  "abi": [
    {
      "constant": false,
      "inputs": [],
      "name": "HelloWorld1",
      "outputs": [],
      "payable": false,
      "stateMutability": "nonpayable",
      "type": "function"
    },
    {
      "constant": true,
      "inputs": [],
      "name": "getgreeting",
      "outputs": [
        {
          "name": "",
          "type": "string"
        }
      ],
      "payable": false,
      "stateMutability": "view",
      "type": "function"
    },
    {
      "constant": false,
      "inputs": [
        {
          "name": "_newGreeting",
          "type": "string"
        }
      ],
      "name": "setgreeeting",
      "outputs": [
        {
          "name": "success",
          "type": "bool"
        }
      ],
      "payable": false,
      "stateMutability": "nonpayable",
      "type": "function"
    }
  ],
  "bytecode": "0x608060405234801561001057600080fd5b50610367806100206000396000f300608060405260043610610057576000357c0100000000000000000000000000000000000000000000000000000000900463ffffffff1680632cedfeff1461005c57806332728a9c146100ec5780639bd2cb3114610103575b600080fd5b34801561006857600080fd5b50610071610184565b6040518080602001828103825283818151815260200191508051906020019080838360005b838110156100b1578082015181840152602081019050610096565b50505050905090810190601f1680156100de5780820380516001836020036101000a031916815260200191505b509250505060405180910390f35b3480156100f857600080fd5b50610101610226565b005b34801561010f57600080fd5b5061016a600480360381019080803590602001908201803590602001908080601f0160208091040260200160405190810160405280939291908181526020018383808284378201915050505050509192919290505050610274565b604051808215151515815260200191505060405180910390f35b606060008054600181600116156101000203166002900480601f01602080910402602001604051908101604052809291908181526020018280546001816001161561010002031660029004801561021c5780601f106101f15761010080835404028352916020019161021c565b820191906000526020600020905b8154815290600101906020018083116101ff57829003601f168201915b5050505050905090565b6040805190810160405280601181526020017f48656c6c6f20736d61727420776f726c6400000000000000000000000000000081525060009080519060200190610271929190610296565b50565b6000816000908051906020019061028c929190610296565b5060019050919050565b828054600181600116156101000203166002900490600052602060002090601f016020900481019282601f106102d757805160ff1916838001178555610305565b82800160010185558215610305579182015b828111156103045782518255916020019190600101906102e9565b5b5090506103129190610316565b5090565b61033891905b8082111561033457600081600090555060010161031c565b5090565b905600a165627a7a723058207d24a104fed6a66a9aa1382e273205d99ccc2cace35003bf0e62692eb399a38b0029",
  "source": "pragma solidity ^0.4.0;\r\ncontract HelloWorld {\r\n    string greeting;\r\n\r\n    function HelloWorld1 () public {\r\n        greeting = \"Hello smart world\";\r\n    }\r\n\r\n    function getgreeting () constant public returns (string){\r\n        return greeting;\r\n    }\r\n\r\n    function setgreeeting(string _newGreeting) public returns (bool success){\r\n        greeting = _newGreeting;\r\n        return true;\r\n    }\r\n}\r\n",
  "sourcePath": "C:\\Users\\rahul.kakrana\\Documents\\GitHub\\smartcontract-demo\\HelloWorldDemo\\contracts\\HelloWorldDemo.sol",
  "compiler": {
    "name": "solc",
    "version": "0.4.24+commit.e67f0147.Emscripten.clang"
  },
  "schemaVersion": "2.0.1",
  "updatedAt": "2018-08-08T20:29:13.261Z"
}